:020000040800F2
:1000000040040020450100084D0100084F01000890
:1000100051010008530100085501000800000000CC
:100020000000000000000000000000005701000870
:1000300059010008000000005B0100085D01000894
:100040005F0100085F0100085F0100085F01000810
:100050005F0100085F0100085F0100085F01000800
:10006000811100085F010008BD1100085F01000850
:100070005F0100085F0100085F0100085F010008E0
:100080005F0100085F0100085F0100085F010008D0
:100090005F0100085F0100085F0100085F010008C0
:1000A0005F0100085F0100085F0100085F010008B0
:1000B0005F0100085F010008FD2700085F010008DC
:1000C0005F0100085F0100085F0100085F01000890
:1000D0005F010008D52900085F0100085F010008E2
:1000E000950E00085F0100085F0100085F0100082D
:1000F0005F0100085F0100085F0100085F01000860
:100100005F0100085F0100085F0100085F0100084F
:100110005F0100085F0100085F0100085F0100083F
:100120005F0100085F0100085F0100085F0100082F
:10013000DFF80CD000F01AFC0048004775360008C4
:10014000400400200648804706480047FEE7FEE7D7
:10015000FEE7FEE7FEE7FEE7FEE7FEE7FEE7FEE777
:100160006D22000831010008F0B480EA0102D40FCA
:100170004200B2EB410F02D20246084611464A0045
:1001800042D0C30DDDB2C1F3C752AD1A202D35DA0E
:10019000C1F3160141F4000204B15242C5F1200638
:1001A00002FA06F12A411044B3EBD05F23D0C4B168
:1001B000012DA0EBC35009DCF0BC4FF0004202EA75
:1001C000C352DBB200F5000000F02DBB400000F18F
:1001D000807000EBC350A0F1807040EAD1704900FC
:1001E00009E0490841EAC071A0EBC35000F50000E6
:1001F000400800EBC350F0BC00F00CBB6142012290
:1002000002EB4101001BF6E7F0BC704781F00041B2
:10021000AAE780F00040A7E780EA010210B502F0EB
:100220000043400022D04A001FD0010E01EB1261B2
:10023000C0F35600C2F3560240F4000042F400023C
:10024000A0FB022000047F39140400D0401C50EAB7
:10025000124001D44000491EC2B20C0604EBD0107B
:10026000401C4008802A02D003E0002010BD20F08E
:100270000100002900DA0020184310BD30B480EAE4
:10028000010202F0004530F0004221F0004013D09E
:1002900090B1C30DD40DC2F31601C0F31600E41AD9
:1002A00041F4000140F400027D34914201D3641C0A
:1002B00000E04900002C02DA30BC002070474FF407
:1002C00000000023914201D3891A034340084FEAFA
:1002D0004101F7D151B1914202D14FF0004105E007
:1002E00002D24FF0010101E06FF0010103EBC450B5
:1002F000284430BC00F08EBA2DE9FE4F804681EADA
:100300000300C00F0C46009021F0004123F000458F
:10031000B8EB0200A94105D24046214690461C4652
:100320000B46024623F00040104347D0270DC7F389
:100330000A00C3F30A510290401A019040286BDA78
:10034000C3F3130040F4801B0098924620B10023B1
:10035000D2EB030A63EB0B0B01985946C0F1400244
:10036000504600F036FA06460D4650465946019A68
:1003700000F03EFA10EB08006141002487EA1152B8
:1003800084EAE7731A4340D0009A62B3019A012AC3
:100390004FEA075215DC001B61EB02014FF00042EF
:1003A00002EA0752CDE90042001C41F580113246B5
:1003B0002B4600F075FA03B0BDE8F08F40462146A9
:1003C000F9E7001B61EB0201001C41F580130018E6
:1003D0005B412018A2F5001747EB030140EAD570F6
:1003E000B6196D4111E06D084FEA360645EAC07551
:1003F0004FEA0752001B61EB0201001C41F580111E
:1004000049084FEA30000019514132462B4603B0EB
:10041000BDE8F04F00F035BA0098012240000023FB
:10042000D0EB020263EBE073009821464FEAE074E0
:10043000B8EB000061EB0401E9E783F000435BE700
:1004400081F0004158E72DE9FE4F81EA030404F0F2
:10045000004421F0004100944FF0000B23F00043D2
:1004600050EA01045ED052EA03045BD0C3F30A549D
:10047000C1F30A552C44A4F2F3340194A0FB0254B6
:10048000C1F3130141F48011C3F3130343F4801348
:1004900001FB024400FB034E840A970A44EA81549C
:1004A00047EA8357A4FB076802958D0A05FB078579
:1004B0004FEA932C04FB0C542705029D4FEA065883
:1004C00047EA1637B5EB08056EEB070C870E920E60
:1004D00047EA811742EA8312A7FB0201B6EB0B0140
:1004E00064EB00042B0D43EA0C335E1844EB1C5004
:1004F000DA465146E7FB0201C5F313044FEA0B331A
:1005000043EA14534FEA0432019C43EA0603A4F180
:100510000C040294009CCDE900B400F0C1F903B0D2
:10052000BDE8F08F00200146F9E72DE9F04D81EAA2
:10053000030404F0004B21F0004514464FF0000A7C
:1005400023F0004150EA050220D054EA01021DD0F8
:10055000C5F30A570246C5F31303C1F31300C1F3F1
:100560000A5640F4801543F48013A7EB0608101BCD
:10057000D64608F2FD3873EB050002D308F10108F6
:1005800001E092185B41B8F1000F03DA0020014648
:10059000BDE8F08D00204FF48011064684460EE041
:1005A000171B73EB050705D3121B63EB050306430B
:1005B0004CEA010C49084FEA300092185B4150EABE
:1005C0000107EDD152EA030012D082EA040083EA67
:1005D0000501084305D0101BAB4106D201220023C0
:1005E00006E000224FF0004302E06FF001025310DA
:1005F0001AEB06004CEB085110EB0A0041EB0B0123
:10060000BDE8F04D00F03DB9C10F80EAE07008444C
:10061000CA079623002100F006B99623002211464E
:1006200000F001B90EB540F2334102910021CDE94D
:1006300000110A460B4600F033F903B000BD00F08C
:10064000004220F00040C10DC0F3160040F400004D
:100650007F2901DA00207047962903DCC1F1960159
:10066000C84001E096398840002AF4D040427047E3
:1006700000F0004230F000400AD0C10D01F5607179
:10068000C0F3160042EA0151C20840071143704707
:10069000002001467047000030B5041E71F10004CF
:1006A00004DB4FF00044404264EB0101141E73F17F
:1006B000000405DB1C464FF00043524263EB040389
:1006C0008B4208BF824230BD30B5041E71F1000478
:1006D00004DB4FF00044404264EB0101141E73F14F
:1006E000000405DB1C464FF00043524263EB040359
:1006F000994208BF904230BD01F0004330B421F070
:10070000004150EA010206D00A0DA2F56072C1F361
:100710001301002A02DC30BC00207047440F44EA79
:10072000C104C100E01830BC00EBC25000F072B848
:10073000002801DBC0F10040002901DBC1F10041CC
:100740008142704730B50B4601460020202201242B
:1007500009E021FA02F59D4205D303FA02F5491B8F
:1007600004FA02F52844151EA2F10102F1DC30BDA5
:100770002DE9F05F0546002092469B4688460646D6
:10078000814640241BE0284641464746224600F069
:10079000FFF853465A46C01A914110D311461846E5
:1007A000224600F016F82D1A67EB01084F46224644
:1007B0000120002100F00DF817EB00094E41201E2A
:1007C000A4F10104DFDC484631462A464346BDE831
:1007D000F09F202A04DB203A00FA02F10020704743
:1007E0009140C2F1200320FA03F31943904070476F
:1007F000202A06DBCB17203A41FA02F043EAE073E5
:1008000006E041FA02F3D040C2F1200291400843D1
:10081000194670470029A8BF7047401C490008BF0F
:1008200020F00100704710B4B0FA80FC00FA0CF020
:1008300050EA010404BF10BC704749B1CCF1200458
:1008400021FA04F411FA0CF118BF012121430843E5
:10085000A3EB0C01CB1D4FEA00614FEA102042BF11
:10086000002010BC704700EBC35010440029A4BF07
:1008700010BC7047401C490008BF20F0010010BCAC
:10088000704710B5141E73F1000408DA401C41F1E2
:10089000000192185B411A4301D120F0010010BD04
:1008A0002DE9F04D92469B4611B1B1FA81F202E07A
:1008B000B0FA80F220329046FFF78BFF04460F46D5
:1008C00040EA0A0041EA0B0153465A46084313D056
:1008D000114653EA010019D0C8F14002504600F019
:1008E00057F805460E46504659464246FFF771FFF7
:1008F000084305D0012004E020463946BDE8F08DCC
:100900000020054346EAE0762C4337430A98630506
:10091000E40AA0EB08000022FD0A44EA47540A302A
:1009200002D500200146E9E7010510196941DDE91A
:10093000084500196941BDE8F04DA2E7C1F30A522C
:10094000C1F3130140F2FF3341F480119A4202DAFD
:1009500000200146704740F233439A42A2F23342EC
:1009600002DC524200F014B8FFF733BF064C074DCB
:1009700006E0E06840F0010394E80700984710346F
:10098000AC42F6D3FFF7D8FBC85A0008E85A000873
:10099000202A04DB203A21FA02F00021704721FAD4
:1009A00002F3D040C2F1200291400843194670473B
:1009B00021B1826842F00102826003E0826822F085
:1009C000010282607047014600208A6802F004023A
:1009D0000AB1012000E0002070470146C86C80B2D7
:1009E00070470246002013680B400BB1012000E065
:1009F00000207047014600208A6802F008020AB110
:100A0000012000E00020704730B50246002000239E
:100A100050680F4C20400D790C6844EA05242043AF
:100A2000506090680B4C2040D1E902542C434D7922
:100A300044EA450420439060D06A20F470000C7CA6
:100A4000641EE4B2234340EA0350D06230BD00008C
:100A5000FFFEF0FFFDF7F1FFF0B504460D46002064
:100A60000021092D11DDE068A5F10A0606EB460715
:100A7000072606FA07F18843A5F10A0606EB4606A3
:100A800003FA06F10843E0600CE0206905EB450736
:100A9000072606FA07F1884305EB450603FA06F137
:100AA00008432061072A0FDA606B561E06EB8607A3
:100AB0001F2606FA07F18843561E06EB860605FA3E
:100AC00006F10843606322E00D2A0FDA206BD61F7F
:100AD00006EB86071F2606FA07F18843D61F06EBAA
:100AE000860605FA06F10843206310E0E06AA2F1E9
:100AF0000D0606EB86071F2606FA07F18843A2F1CA
:100B00000D0606EB860605FA06F10843E062F0BD25
:100B1000816841F008018160704721B1826842F428
:100B2000A002826003E0826822F4A0028260704723
:100B3000816841F0040181607047000000B587B012
:100B400001214FF4017001F0D7F94FF4004001F09A
:100B5000A7F90820ADF8180000208DF81B0003202D
:100B60008DF81A0006A9184800F058FC00200190E2
:100B70008DF808008DF809004FF4602003900020E4
:100B8000049001208DF8140001A91048FFF73CFFE4
:100B900001210E48FFF70CFF0C48FFF7B9FF00BF1B
:100BA0000A48FFF727FF0028FAD10848FFF7C0FFDF
:100BB00000BF0648FFF707FF0028FAD101210348CC
:100BC000FFF7ABFF07B000BD000801400024014063
:100BD00008B50121082001F08FF92020ADF80000B0
:100BE00010208DF8030003208DF8020069460248AA
:100BF00000F014FC08BD0000000C01402DE9F04796
:100C000005460E461746104890FBF6F44FF00008D4
:100C100004FB07F0C82190FBF1F90EE001200B491D
:100C20000860484602F0EEFC00200949C1F8940132
:100C3000A4EB090002F0E6FCA0444FF47A7068438C
:100C40004045EBD8BDE8F08740420F009481214237
:100C50000080214200B585B00121042001F04CF94B
:100C60000121480701F038F91020ADF810000320E9
:100C70008DF8120000208DF8130004A90B4800F035
:100C8000CDFB002000900190029002200390694665
:100C9000002000F031F80021084600F047F801215B
:100CA000002000F015F805B000BD0000000801406C
:100CB00010B50446002C00DA0024B4F5805F01DB97
:100CC00040F6FF742146002000F030F810BD00000F
:100CD00039B1084A1268012383401A43054B1A6050
:100CE00006E0044A1268012383409A43014B1A60CC
:100CF000704700000074004030B5002200230A4C09
:100D0000226840F6FE748440A243D1E900452C439A
:100D10008D682C43CD6844EA050303FA00F42243AE
:100D2000014C226030BD00000074004008B5002274
:100D30000092054A009200F10802009B1A440092BA
:100D4000009A116008BD00000074004008B5022040
:100D5000ADF8000004208DF803006946014800F05A
:100D60005DFB08BD0020014008B50121080201F02B
:100D7000C3F80220ADF8000003208DF80200102017
:100D80008DF803006946024800F048FB08BD0000EA
:100D90000020014010B500BF094800680028FBD0C2
:100DA000282002F02FFC06480068012806D100BF69
:100DB000034800680128FBD0012010BD0020FCE79B
:100DC0000401244270B50024002508E04FF6FF70AE
:100DD00000EA4404FFF7DEFF0443681C85B2082DD7
:100DE000F4DB204670BD000070B50446002500F01D
:100DF00033F800F049F850BB00BF00F045F8002878
:100E0000FBD000BF00F040F80128FBD0002504E033
:100E1000FFF7D8FF6055681C85B2052DF8DB00BFD1
:100E200000F032F80028FBD0FFF79EFF01200949AF
:100E30000860207861780844A1780844E178084483
:100E4000C6B22079B04201D1012070BD00BF0020A0
:100E5000FBE700008401244210B5FFF785FF002066
:100E600007490860132002F0A7FB01200549C1F8DB
:100E700084011E2002F0C6FBFFF768FF10BD0000D2
:100E800084012442000024420148006880B2704777
:100E9000040124422DE9F04100240026002530E021
:100EA0004FF40041A44800F08DFB012829D100F047
:100EB000BFFB0446FA2C00DB24E0C82C03DBFA2C31
:100EC00001DA01260AE03C2C03DB5A2C01DA012767
:100ED00004E00A2C02DB322C00DA0027012E0ED1AE
:100EE0009648006840009549086008460068384404
:100EF0000860202D03DB01209149087002E0681C86
:100F0000C5B2CDE700BF4FF4004000F075F98C4842
:100F10000078012876D18B48007898BB8748006814
:100F20008949884207D101208649087000208449F8
:100F3000087082490860814800688449884207D166
:100F400003208049087000207D4908707B490860B3
:100F50007A4800687E49884207D1042079490870A0
:100F6000002077490870754908607448006879491D
:100F7000884207D105207349087000207049087025
:100F80006E4908606F48007801280BD16B480068F3
:100F90007149884206D100206A4908706849087082
:100FA0006649086067480078032838D163480068BC
:100FB0006A49884210D100214FF4FA7000F01AFFFC
:100FC00032224FF47A716420FFF718FE00205C494A
:100FD00008705A49086022E0584800686049884211
:100FE00011D101214FF4FA7000F004FF32224FF4C6
:100FF0007A716420FFF702FE0020514908704F49C2
:1010000008600CE088E04D4800685349884206D1EA
:1010100000204C4908704A4908704849086049480E
:101020000078042861D145480068474988420ED1BC
:101030004C4800880A304B49088008460088FFF772
:1010400037FE00203E4908703C4908604DE03B48AF
:101050000068454988420ED1424800880A38414913
:10106000088008460088FFF723FE002034490870F6
:101070003249086039E031480068344988420DD16E
:1010800040F2DC503749088008460088FFF710FE20
:1010900000202B4908702949086026E0274800688D
:1010A0003249884208D10120314908700020244982
:1010B00008702249086018E0204800682D498842DD
:1010C00007D100202A4908701D4908701B49086093
:1010D0000BE01A4800682049884206D100201949CF
:1010E00008701749087015490860164800780528E7
:1010F0001FD1124800681D4988420ED101201E49A7
:1011000008600A2002F058FA00201C49C1F8A80122
:101110000B490870094908600BE0084800680E494F
:10112000884206D100200749087005490870034924
:101130000860BDE8F08100000020014010000020A0
:101140001400002018000020CF30FF00857AFF0037
:10115000EF10FF00C738FF009768FF003DC2FF0097
:10116000FD02FF0016000020E718FF00DD22FF004F
:10117000190000201FE0FF00A881234200802342C5
:1011800010B5042000F03EF8012811D10A2002F029
:1011900013FA0948006801280AD100214FF4FA70B7
:1011A00000F028FE32224FF47A716420FFF726FD0A
:1011B000042000F021F810BD1001234210B51020CA
:1011C00000F020F8012811D10A2002F0F5F90948B1
:1011D000006801280AD101214FF4FA7000F00AFEDC
:1011E00032224FF47A716420FFF708FD102000F0DE
:1011F00003F810BD08012342014908607047000050
:1012000014040140014600200022074B1B6803EA3A
:101210000102054B14331B680B4013B10AB10120C6
:1012200000E0002070470000000401400021234935
:101230008279002A3AD00A46126803689A430B461C
:101240001A600A1D126803689A430B1D1A6002791E
:1012500011440A6803681A430A60184A083212687F
:1012600003689A43154B08331A601A1D1268036805
:101270009A43124B0C331A604279102A0ED11A1F6E
:10128000126803681A430D4B08331A601A1D12685E
:1012900003681A43094B0C331A600DE00749427981
:1012A00011440A6803681A430A6005E00279114490
:1012B0000A6803689A430A6070470000000401400E
:1012C00051B18200A2F1C042126842F001038200D3
:1012D000A2F1C042136009E08200A2F1C04212688C
:1012E000034B1A408300A3F1C0431A60704700000B
:1012F000FEFF0F00D0E901121143C26811430269D9
:1013000011434269114382691143C2691143026A60
:101310001143426A1143826A1143C26A1143026B4C
:10132000114302689200A2F1C0421160816808294D
:101330000BD101688900A1F1C041096841F0400268
:1013400001688900A1F1C0410A60416B0968426BE4
:10135000526841EA0211426B926841EA0221426BF3
:10136000928941EA0241426B128A41EA0251426B80
:10137000127D41EA0261426B926911430268521C7C
:101380009200A2F1C0421160C16AB1F5804F1BD139
:10139000816B0968826B526841EA0211826B926824
:1013A00041EA0221826B128A41EA0251826B127D6C
:1013B00041EA0261826B9269114302689200A2F1D4
:1013C000C042C2F8041107E06FF070420168890062
:1013D000A1F1C041C1F804217047000030B50022DE
:1013E0008B071C0F0F2303FA04F20B4B8C1053F8DE
:1013F00024309343084C8D1044F8253023468C103C
:1014000053F824308C07240F00FA04F42343024CD1
:101410008D1044F8253030BD080001402DE9F04121
:10142000024600250026002000230024002791F812
:1014300003C00CF00F0591F803C00CF0100CBCF1C8
:10144000000F03D091F802C04CEA050591F800C0E6
:10145000BCF1000F31D0146800202BE04FF0010CDC
:101460000CFA00F3B1F800C00CEA03069E4220D14A
:1014700083004FF00F0C0CFA03F7BC4305FA03FC92
:101480004CEA040491F803C0BCF1280F06D14FF0D8
:10149000010C0CFA00FCC2F814C00AE091F803C079
:1014A000BCF1480F05D14FF0010C0CFA00FCC2F85A
:1014B00010C0401C0828D1D31460B1F800C0BCF1A2
:1014C000FF0F34DD546800202EE000F1080C4FF0CF
:1014D000010808FA0CF3B1F800C00CEA03069E42BA
:1014E00021D183004FF00F0C0CFA03F7BC4305FA2F
:1014F00003FC4CEA040491F803C0BCF1280F05D1A9
:1015000000F1080C08FA0CF8C2F8148091F803C036
:10151000BCF1480F07D100F1080C4FF0010808FAA0
:101520000CF8C2F81080401C0828CED35460BDE8E7
:10153000F0810000F0B50A460023002400210025B8
:1015400000F00046B6F1004F02D11D4EF16901E0F6
:101550001B4E7168C0F3034583B200F44016B6F524
:10156000401F08D121F07061154E766826F0706634
:10157000134F7E6012E000F48016B6F5801F06D18E
:10158000032606FA05F4A14341F0706106E0460D1A
:10159000360103FA06F6B14341F0706122B1460DFF
:1015A000360103FA06F6314300F00046B6F1004F6B
:1015B00002D1034EF16101E0014E7160F0BD000007
:1015C000000001400246002093680B400BB101204F
:1015D00000E0002070470161704700002DE9F041F4
:1015E00005460C4600260723012229460F48FFF72F
:1015F00033FA002713E001210C48FFF78EFA00BFF1
:1016000002210A48FFF7EDF90028F9D00748FFF753
:10161000E4F90644052001F0CFFF781CC7B2A742C9
:10162000E9DBB6FBF4F080B2BDE8F08100240140B4
:1016300010B5002408E0601CC4B2142001F0E2FFE1
:10164000FA2C01DB204610BD4FF400410348FFF7A0
:10165000B9FF0128EFD02046F5E700000020014047
:101660001FB5012140F2011000F046FC4FF400408C
:10167000ADF80C0048208DF80F0003A91448FFF7BF
:10168000CDFE0F210620FFF7A9FE4FF40040FFF723
:10169000B3FD4FF40040019000208DF808000C20AD
:1016A0008DF8090001208DF80A0001A8FFF7BEFDA2
:1016B00028208DF8000000208DF8010001208DF811
:1016C00002008DF80300684600F0A8FB1FBD000073
:1016D0000020014010B500200A49086000F096FC87
:1016E00000200949C1F8AC01052001F08BFF012061
:1016F00004490860052001F085FF00200249C1F877
:10170000A80110BDA88121420080214208B5012115
:10171000082000F0F1FB4FF48060ADF800000320DA
:101720008DF8020010208DF8030069460848FFF785
:1017300075FE4FF40060ADF8000069460448FFF7FD
:101740006DFE0120034908600349C1F8AC0108BDE2
:10175000000C0140A88121420080214210B50020E8
:101760000A49086000F052FC01200949C1F8AC01A7
:10177000052001F047FF012004490860052001F021
:1017800041FF00200249C1F8A80110BDA8812142F3
:101790000080214270B5002400F028FC002514E0F0
:1017A00000200C490860052001F02CFF01200A49A7
:1017B000C1F8A80107487C38006840EA4400C4B278
:1017C000052001F01FFF681CC5B2082DE8DB20468C
:1017D00070BD0000A88121420080214270B50446FE
:1017E00000F014FC00201349086000251EE0E00909
:1017F00020B101200F49091D086003E000200D49B8
:10180000091D08606006040E052001F0FBFE0120A2
:1018100008490860052001F0F5FE00200649C1F8DE
:10182000A801052001F0EEFE681CC5B2082DDEDB24
:1018300070BD0000A88121420080214210B500F057
:10184000E5FB0120094908600949C1F8A801052004
:1018500001F0D8FE002005490860052001F0D2FE05
:1018600000200349C1F8A80110BD0000AC8121424D
:101870000080214210B500F0C9FB00200849086033
:101880000849C1F8AC01052001F0BCFE0120044963
:1018900008600449C1F8AC01052001F0B3FE10BD99
:1018A000A88121420080214210B500240020174960
:1018B0000860022001F0A6FE01201549C1F8AC0124
:1018C000052001F09FFE00F091FB022001F09AFE3E
:1018D00001200E490860052001F094FE05E0601C1F
:1018E000C4B2FA2C01DD002010BD08487C38006825
:1018F0000028F4D1022001F085FE00200349086091
:10190000022001F07FFE0120EEE70000A8812142C5
:10191000008021420EB50121084600F0EDFA0221B7
:101920000420FFF75BFD03210420FFF757FD04218E
:101930000846FFF753FD00210846FFF74FFD06203C
:101940008DF8080002208DF8090003208DF80A00A8
:1019500001208DF80B0002A800F060FA08208DF835
:10196000080002208DF809008DF80A0001208DF88A
:101970000B0002A800F052FA09208DF8080002209E
:101980008DF8090001208DF80A008DF80B0002A8DF
:1019900000F044FA0A208DF8080002208DF80900B2
:1019A00000208DF80A0001208DF80B0002A800F03D
:1019B00035FA1C20009000208DF804000C208DF8D2
:1019C000050001208DF806006846FFF72FFC012076
:1019D000009000208DF8040008208DF805000120FB
:1019E0008DF806006846FFF721FC0EBD08B5012101
:1019F000442000F081FA0120ADF8000028208DF885
:101A0000030003208DF8020069460848FFF706FD31
:101A10001C20ADF8000048208DF8030003208DF84D
:101A2000020069460248FFF7F9FC08BD00080140C2
:101A30000018014070B506460F484088401E83B22A
:101A40000D480088401E82B20021084600F05CF874
:101A500000240CE0002504E0304600F08BF9681CFF
:101A600085B205484088A842F6DC601C84B2024872
:101A70000088A042EEDC70BD0800002000B50246E0
:101A8000B2B9012000F06AF94FF4807000F06CF9EF
:101A9000032000F063F941F2300000F065F94FF4E3
:101AA000C8700E494880F02008800020887114E03A
:101AB000012000F053F9002000F056F9032000F057
:101AC0004DF941F2380000F04FF9F0200349488009
:101AD0004FF4C87008800120887100BD0800002004
:101AE00070B504460D4616462B462246294620462A
:101AF00000F00AF8304600F03DF970BD014800885A
:101B0000704700000008006C30B505460C462E48B2
:101B1000807950BB4FF4047000F020F9284600F0A3
:101B200023F940F2112000F019F9104600F01CF9D9
:101B300040F2122000F012F9204600F015F940F2B0
:101B4000132000F00BF9184600F00EF94FF4007066
:101B500000F004F9284600F007F940F2012000F0F7
:101B6000FDF8204600F000F929E040F2122000F0D4
:101B7000F5F8284600F0F8F840F2132000F0EEF8EF
:101B8000104600F0F1F84FF4047000F0E7F820463A
:101B900000F0EAF840F2112000F0E0F8184600F0FA
:101BA000E3F840F2012000F0D9F8284600F0DCF814
:101BB0004FF4007000F0D2F8204600F0D5F840F263
:101BC000022000F0CBF830BD080000202DE9F84FCE
:101BD00080460E4617461C46B3462046E31704EBE4
:101BE0005373DB1021464FEAE47C04EB5C7C4FEA44
:101BF000EC0CA4EBCC0CBCF1000F02D04FF0010CAC
:101C000001E04FF0000C6344224604EBD27C4FEA23
:101C10006C0C03FB0CF3DBB20093A7F12000C7B2FE
:101C2000002556E00C2C07D107EB47002B4901EBB0
:101C3000800010F8059013E0102C05D1284800EB27
:101C4000071010F805900BE0182C07D107EBC70020
:101C5000244901EB800010F8059001E0BDE8F88F01
:101C60004FF0000A2FE009F0800030B11E480288D2
:101C700031464046FFF734FF07E00A9828B91B4871
:101C8000028831464046FFF72BFF4FEA49604FEA92
:101C90001069701C86B216484088B04200DCDDE74F
:101CA000A6EB0B00A0420AD15E4608F101001FFA24
:101CB00080F80F480088404500DCCFE706E00AF1D5
:101CC000010000F0FF0ABAF1080FCCDB00BF681C6E
:101CD000C5B200988542A5DB00BFBFE7E03E000823
:101CE0005443000844490008040000200600002076
:101CF000080000202DE9F84704460D469046994615
:101D0000DDE9096704F0FF0A08EB04001FFA80F818
:101D100009EB05001FFA80F916E0444502DB544642
:101D2000A81985B24D4500DB14E0002000903A78F8
:101D3000334629462046FFF749FF304606EBD0716F
:101D400004EB61018CB27F1C38787E2802DC387885
:101D50002028E2DA00BFBDE8F887000001490880CA
:101D600070470000FE07006C0149088070470000C2
:101D70000008006C01490880704700000008006CF2
:101D800008B50121102000F0B7F8FF20ADF80000E1
:101D900010208DF8030003208DF8020069460448E6
:101DA000FFF73CFBFF210248FFF715FC08BD0000D0
:101DB0000010014008B50121080200F09DF80C2038
:101DC000ADF8000010208DF8030003208DF802000C
:101DD00069460548FFF722FB0120044908600449D1
:101DE000C1F88C0108BD0000002001408801244298
:101DF0000000244270B504460D46002005490860E5
:101E00000548C0F88851A0B201F0D6FB0120014975
:101E1000086070BD8C0124420000244270B500218E
:101E200000230F22C47804B3154C246804F4E06442
:101E3000C4F5E064210AC1F10403CA40447804FAFD
:101E400003F184781440214309010E4C0678A15512
:101E5000047804F01F050124AC4005786D11AD0035
:101E600005F1E025C5F8004109E0047804F01F05FC
:101E70000124AC40044D0678761145F8264070BD2B
:101E80000CED00E000E400E080E100E002490143E5
:101E9000024A1160704700000000FA050CED00E0F6
:101EA00001460020034A506820F440400843506037
:101EB000704700000010024029B1064A52690243EF
:101EC000044B5A6104E0034A52698243014B5A6150
:101ED000704700000010024029B1064AD26902434F
:101EE000044BDA6104E0034AD2698243014BDA61B0
:101EF000704700000010024029B1064A926902436F
:101F0000044B9A6104E0034A92698243014B9A614F
:101F1000704700000010024030B50021002200246C
:101F200000232D4D6D6805F00C0121B1042905D069
:101F3000082923D105E0294D056022E0274D0560E1
:101F40001FE0254D6D6805F47012234D6D6805F492
:101F50008034022505EB92421CB9214D55430560A2
:101F60000BE01D4D6D6805F400351DB11C4D55434A
:101F7000056002E0194D5543056002E0174D05600C
:101F800000BF00BF144D6D6805F0F0010909154D43
:101F90006B5C0568DD4045600F4D6D6805F4E061E0
:101FA000090A104D6B5C4568DD4085600A4D6D681F
:101FB00005F46051C90A0B4D6B5C4568DD40C56096
:101FC000054D6D6805F44041890B074D6B5CC56894
:101FD000B5FBF3F5056130BD0010024000127A0038
:101FE00000093D00210000203100002008B54FF419
:101FF0000060ADF8000048208DF8030069460248F3
:10200000FFF70CFA08BD0000000C014008B54FF4C2
:102010000060ADF8000003208DF8020010208DF85C
:10202000030069460148FFF7F9F908BD000C0140BB
:1020300010B5FFF76BFB10BD10B5002021490870EB
:10204000FFF7FCFB8820FFF7C9FBFFF72DFCE02022
:10205000FFF7C4FBFFF728FC0020FFF7BFFBFFF7EB
:1020600023FCFFF707FCFFF7E9FB8920FFF7B6FB2E
:10207000FFF71AFCFFF78EFB13490870FFF72AFBE6
:10208000FFF788FB10494870FFF724FBFFF782FB3E
:102090000D498870FFF71EFBFFF77CFB0A49C870EB
:1020A000FFF718FBFFF776FB07490871FFF712FBF4
:1020B000FFF770FB04494871FFF750FBFFF7DAFBAD
:1020C00010BD00001A0000201B00002010B5FFF713
:1020D000B5FB8820FFF782FBFFF7E6FB3020FFF718
:1020E0007DFBFFF7E1FB6620FFF778FBFFF7DCFBEA
:1020F000FFF7C0FB10BD10B5FFF7A0FB8820FFF76E
:102100006DFBFFF7D1FB2120FFF768FBFFF7CCFB4E
:102110003020FFF763FBFFF7C7FBFFF7ABFB10BDFA
:1021200010B500F001F810BD0CB500200190009032
:102130003348006840F480303149086000BF3048BF
:10214000006800F4003000900198401C0190009855
:1021500018B90198B0F5A06FF1D12948006800F4D2
:10216000003010B10120009001E0002000900098A4
:10217000012843D12348006840F01000214908603D
:102180000846006820F0030008600846006840F038
:10219000020008601A4840681949486008464068CB
:1021A00048600846406840F48060486008464068DF
:1021B00020F47C1048600846406840F4E81048600D
:1021C0000846006840F08070086000BF0C48006856
:1021D00000F000700028F9D00948406820F00300A2
:1021E000074948600846406840F00200486000BF68
:1021F0000348406800F00C000828F9D10CBD00002D
:102200000010024000200240042808D14FF0E021D5
:10221000096941F004014FF0E022116107E04FF03D
:10222000E021096921F004014FF0E02211617047BB
:1022300010B504466FF00400FFF7E6FFE11704EB6A
:102240005171C1F3C701074A11701046007800EBC5
:102250004001C1EBC0104FF6FF7101EAC000024916
:10226000088010BD000000200200002010B51348B7
:10227000006840F0010011490860084640681049B4
:1022800008400E494860084600680E4908400B495E
:1022900008600846006820F480200860084640680E
:1022A00020F4FE0048604FF41F008860FFF738FFFD
:1022B0004FF000600449086010BD000000100240AB
:1022C0000000FFF8FFFFF6FE08ED00E000B59DB04E
:1022D00001210802FFF7F0FD01200790002008907F
:1022E0000F20099000200A900B900C900D90009008
:1022F0000190032002900020039004900590069026
:1023000006200E9000200F901090102011900020B9
:10231000129014901390159016904FF480501790CF
:10232000002018904FF48040199000201A9007A8C0
:102330001B90CDF870D00EA8FEF7DCFF012106201F
:10234000FEF7BEFF1DB000BD08B501214FF4B0700F
:10235000FFF7D2FD4CF23370ADF8000018208DF875
:10236000030003208DF8020069461048FFF756F875
:102370004FF68070ADF8000018208DF803000320A0
:102380008DF8020069460A48FFF748F841F201005B
:10239000ADF8000018208DF8030003208DF802002E
:1023A00069460448FFF73AF808BD000000140140F0
:1023B000001801400020014010B5FFF7C5FFFFF7EE
:1023C00085FF322001F0F8F80020FFF7C7FCFFF787
:1023D00095FBAF4988800020FFF7C0FC0020FFF785
:1023E000BDFC0A2001F0E8F80020FFF7B7FC002050
:1023F000FFF7B4FC0020FFF7B1FC0020FFF7AEFCB4
:102400000020FFF7ABFC0020FFF7A8FC0020FFF73F
:10241000A5FC0020FFF7A2FC0A2001F0CDF84FF444
:102420008060FFF79BFC4FF4C440FFF79DFC082041
:10243000FFF794FC40F60800FFF796FC4FF440705D
:10244000FFF78CFC0520FFF78FFC40F20130FFF70F
:1024500085FC44F60640FFF787FC40F20230FFF7A8
:102460007DFC40F20260FFF77FFC40F20330FFF793
:1024700075FC40F20C50FFF777FC4FF44170FFF70A
:102480006DFC4FF44C50FFF76FFC40F20530FFF746
:1024900065FC40F60540FFF767FC40F20630FFF7A9
:1024A0005DFC44F20620FFF75FFC40F20730FFF7C7
:1024B00055FC40F20C60FFF757FC4FF44270FFF7F9
:1024C0004DFC4FF4A060FFF74FFC40F20930FFF7DE
:1024D00045FC3320FFF748FC1020FFF73FFC142099
:1024E000FFF742FC1120FFF739FC40F20110FFF723
:1024F0003BFC1220FFF732FC0020FFF735FC1320D5
:10250000FFF72CFC0120FFF72FFC4FF48070FFF742
:1025100025FC4FF44C70FFF727FC40F20110FFF749
:102520001DFC40F24720FFF71FFC40F20310FFF7AD
:1025300015FC4FF48050FFF717FC4FF42070FFF7A5
:102540000DFC4FF45E40FFF70FFC4FF48170FFF776
:1025500005FC4DF2B010FFF707FC0A2001F02CF843
:102560000120FFF7FBFB4FF48070FFF7FDFB02201B
:10257000FFF7F4FB4FF48070FFF7F6FB0320FFF743
:10258000EDFB41F23000FFF7EFFB0920FFF7E6FB20
:102590000120FFF7E9FB0C20FFF7E0FB0020FFF72D
:1025A000E3FB9020FFF7DAFB4FF40040FFF7DCFB82
:1025B0000F20FFF7D3FB0020FFF7D6FB4FF404708A
:1025C000FFF7CCFB0020FFF7CFFB40F21120FFF715
:1025D000C5FBEF20FFF7C8FB40F21220FFF7BEFB60
:1025E0000020FFF7C1FB40F21320FFF7B7FB40F2DA
:1025F0008F10FFF7B9FB4FF4A060FFF7AFFB00208F
:10260000FFF7B2FB40F20150FFF7A8FB0020FFF7F5
:10261000ABFB40F20250FFF7A1FB5F20FFF7A4FBEA
:1026200040F20140FFF79AFB0120FFF79DFB40F2CB
:102630000440FFF793FB0020FFF796FB0A2000F011
:10264000BBFF0720FFF78AFB4FF48070FFF78CFB7E
:102650000A2000F0B1FF4FF40070FFF77FFB00206D
:10266000FFF782FB40F20120FFF778FB0020FFF725
:102670007BFB0A2000F0A0FF40F20220FFF76EFB78
:102680000020FFF7FBF94FF6FF70FFF7D3F910BDFD
:102690000800002030B589B005460C460121102005
:1026A000FFF72AFC01210220FFF716FC0121084652
:1026B000FFF722FC4020ADF8040003208DF806004F
:1026C00018208DF8070001A91748FEF7A7FE012181
:1026D0001648FEF72FFFADF81C50ADF8184000204B
:1026E000ADF81E00ADF81A0006A9114800F020F957
:1026F0006020ADF808000220ADF810000120ADF810
:102700000A0002A90A4800F0BBF80821084800F0B6
:1027100003F90121064800F085F80121044800F082
:1027200090F809B030BD000000100140000C1A0004
:102730000004004030B589B005460C460121202038
:10274000FFF7DAFB01210420FFF7C6FB0121084651
:10275000FFF7D2FB4FF48050ADF8040003208DF852
:10276000060018208DF8070001A91748FEF756FE4D
:1027700001210803FEF7DEFEADF81C50ADF818404D
:102780000020ADF81E00ADF81A0006A90F4800F0B1
:10279000CFF86020ADF808000220ADF8100001204D
:1027A000ADF80A0002A9094800F06AF808210748B4
:1027B00000F0B2F80121054800F034F80121034887
:1027C00000F03FF809B030BD00140140000800409F
:1027D00010B50446012C04D10121074800F031F85E
:1027E00008E03CB90121044800F037F80021024814
:1027F00000F027F810BD00000008004010B50121CE
:10280000074800F02CF828B101224FF47A716420B7
:10281000FEF7F4F90121024800F010F810BD0000A5
:102820000008004021B1028842F08002028004E0EA
:1028300002884FF67F731A4002807047CA430282B3
:10284000704721B1028842F00102028004E0028850
:102850004FF6FE731A40028070478182704730B590
:102860000246002000230024158A05EA0103958909
:1028700005EA010413B10CB1012000E0002030BDD5
:1028800070B5002400220023058C4FF6FE763540FB
:102890000584028C8388048B4FF68F752C40B51EFF
:1028A0002C400D882C43751E2A400D892A434D88E3
:1028B0002A43144DA8420BD0134DA84208D0134D03
:1028C000A84205D0124DA84202D0124DA84213D101
:1028D0004FF6F7752A404D892A434FF6FB752A407B
:1028E0008D882A434FF6FF652B404FF6FF552B404E
:1028F0008D892B43CD892B4383800483CD888586A6
:10290000028470BD002C01400034014000400140B1
:1029100000440140004801400A460021018B4FF667
:10292000F773194011430183704781867047000097
:10293000002202881D4B98420ED01D4B98420BD0AE
:10294000B0F1804F08D01B4B984205D01A4B9842EB
:1029500002D01A4B984204D14FF68F731A404B881D
:102960001A43174B984207D0164B984204D04FF6A3
:10297000FF431A40CB881A4302808B8883850B88DB
:1029800003850A4B98420BD0094B984208D00E4B56
:10299000984205D00D4B984202D00D4B984201D180
:1029A0000B7A03860123838270470000002C0140CC
:1029B000003401400004004000080040000C0040CA
:1029C000001000400014004000400140004401405D
:1029D0000048014010B540F225510D4800F094F830
:1029E00050B10B4800F04CF9C4B22146084800F041
:1029F0004CF9204600F04EF900BF4021044800F099
:102A000076F80128F9D14021014800F05BF810BDAB
:102A10000038014010B586B0044601210420FFF7BC
:102A20006BFA01218803FFF767FA4FF40070ADF8E5
:102A3000140003208DF8160018208DF8170005A942
:102A40001E48FEF7EBFC4FF48060ADF81400042044
:102A50008DF8170005A91948FEF7E0FC0194002045
:102A6000ADF80800ADF80A00ADF80C000C20ADF888
:102A70000E000020ADF8100001A9114800F094F8F4
:102A800001210F4800F027F840210D4800F01AF806
:102A9000012240F225510A4800F060F825208DF807
:102AA000000000208DF801008DF8020001208DF853
:102AB00003006846FFF7B2F906B010BD00080140F8
:102AC0000038014001F40072B2F5007F00D100BF70
:102AD000CA430280704721B1828942F40052828148
:102AE00004E082894DF6FF731A40828170470246E6
:102AF0000020B1F5007F00D100BF13880B400BB15F
:102B0000012000E00020704770B502460024002339
:102B10000025002040F66A16B14200D100BFC1F383
:102B2000421501F01F03012606FA03F3012D02D11D
:102B30009689334006E0022D02D1168A334001E027
:102B4000968A33400C12012606FA04F416883440A3
:102B500013B10CB1012000E0002070BDF0B50346B8
:102B6000002400260025002040F66A17B94200D153
:102B700000BF1846C1F3421401F01F06012707FAEF
:102B800006F5012C01D10C3004E0022C01D11030EB
:102B900000E014301AB107682F43076002E00768AD
:102BA000AF430760F0BD00002DE9F04786B0054651
:102BB0000E460024A24600BFA1460027B08900B1FE
:102BC00000BF2F462C8A4CF6FF700440F088044367
:102BD0002C82AC894EF6F3100440B088318908434A
:102BE000718908430443AC81AC8A4FF6FF4004402E
:102BF000B0890443AC8201A8FFF78EF91F488742D1
:102C000002D1DDF810A001E0DDF80CA0A88900F4E5
:102C1000004040B10AEBCA0000EB0A1031684900DD
:102C2000B0FBF1F807E00AEBCA0000EB0A103168CC
:102C30008900B0FBF1F86420B8FBF0F00401200932
:102C4000642101FB1089A88900F4004040B13220C2
:102C500000EBC900B0FBF1F000F00700044308E00E
:102C6000322000EB09106421B0FBF1F000F00F00FE
:102C700004432C8106B0BDE8F08700000038014015
:102C800001468888C0F308007047C1F308028280BB
:102C9000704700000FB4054B10B503A9044A029811
:102CA00000F0EEF810BC5DF814FB0000513600088F
:102CB000380000200FB4084B10B504A902AA0398ED
:102CC00000F0DEF8044602A9002000F070FC204667
:102CD00010BC5DF814FB0000AF35000802E008C826
:102CE000121F08C1002AFAD170477047002001E086
:102CF00001C1121F002AFBD1704700002DE9FF5FC0
:102D000082B00021DDE90430020DDDF840B003435C
:102D100018D044F61050A2F2FF3242431514119815
:102D200001281FD0A5EB0B00401C5FEA000A4FF002
:102D300000064E4FDFF83891B046504615D5CAF11F
:102D4000000413E0119801244AA3012801D16FEA7D
:102D50000B010298119AC0E90031C0E9024206B0A5
:102D6000BDE8F09FCBF10000DFE704460021404AB8
:102D7000491842EB0450CDE9001012E0E00707D0FB
:102D800032463B4640464946FDF75DFB8046894654
:102D900032463B4610461946FDF755FB06460F46A0
:102DA0006410002CEAD1DDE90401DDE90023BAF169
:102DB000000F06DAFDF747FB42464B46FDF743FBA3
:102DC00005E0FDF7B2FB42464B46FDF7AEFB04467D
:102DD0000E460022284BFDF777FC03D84FF0FF305A
:102DE000014607E00022254B20463146FDF784FAD4
:102DF000FDF7A4FD102409E0002C0ADB0A220023C1
:102E0000FDF7B6FC039B30321A55641E50EA0102EE
:102E1000F2D1641C039AC4F111031444119A012ADB
:102E200003D0012208430DD10AE0084304D000205A
:102E30004FF0110B119072E7A3EB0B056D1E0DE027
:102E40005B4504DD4FF0000205F1010504E003DA03
:102E50004FF00002A5F10105002AECD0029811996B
:102E6000C0E90231C0E9004579E7000000001440E4
:102E70000000F03F300000000000F0430000E03FA1
:102E80002DE9FF4F95B09B468946064600250FE287
:102E9000252877D100242746F84A0121059400E02F
:102EA000044316F8013F203B01FA03F01042F7D12A
:102EB00030782A2811D06FF02F033078A0F130023B
:102EC000092A16D8059A44F0020402EB820203EBA9
:102ED00042021044761C0590EFE759F8042B059246
:102EE000002A03DA504244F40054059044F00204EE
:102EF000761C30782E2816D116F8010F44F0040401
:102F00002A280DD06FF02F023078A0F13003092B62
:102F100009D807EB870302EB4303C718761CF3E7D6
:102F200059F8047B761C30786C280FD006DC4C28CE
:102F300017D068280DD06A2814D104E0742810D066
:102F40007A280FD10DE044F400140AE044F4801410
:102F500001E044F440147278824202D104F58014F6
:102F6000761C761C307866280BD013DC582877D076
:102F700009DC002875D04528F6D04628F4D047282B
:102F80001AD19DE118E0632835D0642879D06528EE
:102F900012D195E1702873D008DC6728F1D0692838
:102FA0006FD06E280DD06F2806D1B5E073282CD0D5
:102FB000752875D0782874D05A46179990476D1C9B
:102FC00075E1C4F30250022809D003280DD0D9F8C6
:102FD000001004280DD00D6009F1040967E1D9F84B
:102FE0000010EA17C1E90052F6E7D9F800100D8089
:102FF000F2E70D70F0E719F8041B8DF800100020BF
:103000008DF80100EA46012003E059F804AB4FF0C7
:10301000FF3061074FF0000102D40DE008F101011B
:103020008846B9420FDA8045F8DB1AF80810002903
:10303000F4D108E008F1010188468142FADB1AF870
:1030400008100029F6D105985B46A0EB0807214639
:103050003846179A00F094FA284400EB080507E078
:103060004DE029E10DE01AF8010B5A4617999047F7
:10307000B8F10108F7D25B4621463846179A13E1AA
:1030800042E00A220092C4F302524FF0000A022AE0
:1030900008D059F804CB032A4FEAEC710AD00DE0AE
:1030A00029E02AE009F1070121F00702F2E802C154
:1030B000914609E00FFA8CFC4FEAEC71042A03D127
:1030C0004FFA8CFC4FEAEC71002907DA0A4600211E
:1030D000DCF1000C61EB02012D2202E0220504D597
:1030E0002B228DF80420012203E0E20701D02022E8
:1030F000F7E7904659E00A2102E010220DE0102186
:103100004FF0000A00910BE010224FF0000A44F04B
:1031100004040827009203E008224FF0000A0092FE
:10312000C4F30252022A05D059F804CB0021032A25
:1031300008D009E009F1070121F00702F2E802C115
:10314000914605E01FFA8CFC042A01D10CF0FF0C1B
:103150004FF00008220728D5702806D0009B83F086
:10316000100353EA0A0305D00EE040228DF8042034
:10317000012208E05CEA010206D030228DF804202A
:103180008DF8050002229046009B83F0080353EA65
:103190000A030AD15CEA010201D1620705D5302297
:1031A0008DF804204FF001087F1E582804D034A069
:1031B00003900EA802900DE036A0F9E75346604652
:1031C000009AFDF7D5FA84460398825C0298401E67
:1031D000029002705CEA0100F0D1029806A9081A78
:1031E00000F1200A600702D524F4803400E00127B2
:1031F000574502DDA7EB0A0000E0002000EB0A01C2
:10320000009005984144401A0590E00306D45B46BF
:103210002146179A059800F0B3F90544002706E007
:1032200001A85A46C05D179990476D1C7F1C474501
:10323000F6DBE0030CD55B462146179A059800F0B3
:103240009FF9054404E030205A46179990476D1CB9
:103250000099481E00900029F5DC08E002980299C8
:103260005A460078491C0291179990476D1CBAF193
:103270000001AAF1010AF1DC65E100000928010062
:1032800030313233343536373839616263646566DC
:10329000000000003031323334353637383941429E
:1032A000434445460000000000F058F90544761CF0
:1032B000307800287FF4ECAD19B02846BDE8F08FD7
:1032C000620700D4062709F1070222F0070CFCE888
:1032D0000223E14603F000485FEA080C02D00FF237
:1032E000702C0DE05FEA045C02D50FF2682C07E059
:1032F0005FEAC47C02D00FF2602C01E0AFF2700CE8
:103300004FF0FF3823F00043CDF850C065280CD0B3
:1033100006DC452809D046281DD047283DD13DE090
:10332000662818D067287ED138E00021112F01DBF4
:10333000112000E0781CCDE9000106A90EA8FFF7D6
:10334000DDFCDDE90F010E9A03910021009207F1E7
:10335000010A04914DE04FF000400097CDE90110C3
:1033600006A90EA8FFF7CAFCDDE90F0203920E9B27
:1033700011990022DDF80CA00093049211B9791C78
:1033800000EB010AB7EB0A0004D4C0F1FF3007F1EB
:10339000010A0490AAEB0700019044E0012F00DA33
:1033A00001270021112F01DD112000E03846CDE971
:1033B000000106A90EA8FFF7A1FCDDE90F010E9A96
:1033C0000391002104910092BA4621070CD403997D
:1033D000514500DA8A46BAF1010F05DD009AAAF1DB
:1033E0000101515C302908D0B84202DA10F1040F13
:1033F00006DA0121CDE9011015E0AAF10101E9E7A2
:10340000002805DC049901440491AAEB000102E0C4
:10341000411C514500DD8A460499401A401C019028
:103420004FF000400290200704D40198504501DB82
:10343000CDF8048000208DF84F0002980DF14F0761
:10344000B0F1004F25D02B200E9002984FF00208CB
:1034500000280CDA404202902D200E9007E00A214D
:103460000298FDF76FF93031029007F8011DB8F1AD
:103470000001A8F10108F2DC02980028EFD1791EC2
:103480000E980870307800F0200040F0450007F8F2
:10349000020D12A8C01B00F107081498007800B1B3
:1034A000012000EB0A01019801EBE071059841440D
:1034B000401A401E0590E00306D45B462146179A49
:1034C000059800F05DF805441498007818B15A4644
:1034D000179990476D1CE00324D55B462146179A47
:1034E000059800F04DF805441CE00498002807DB1F
:1034F000DDE90301884203DD0098405C179901E093
:10350000179930205A469047049805F10105401C50
:1035100004900198401E019004D12E205A4617991C
:1035200090476D1CBAF10001AAF1010ADDDC05E04B
:1035300017F8010B5A46179990476D1CB8F1000116
:10354000A8F10108F4DC5B462146179A0598ABE622
:103550002D0000002B000000200000002DE9F041AC
:10356000044600251E461746880404D405E0394663
:103570002020B0476D1C641EF9D52846BDE8F081B7
:103580002DE9F041044600251E469046C80301D5AA
:10359000302700E02027880404D505E0414638465E
:1035A000B0476D1C641EF9D52846BDE8F0810A6855
:1035B000531C0B60107070470146114A12884A4331
:1035C0004FF0E0235A6100229A611A46126942F0D4
:1035D00001021A6100BF4FF0E022106900F0010201
:1035E0001AB100F48032002AF5D04FF0E0221269BF
:1035F00022F001024FF0E0231A6100229A61704725
:10360000020000200146114A12784A434FF0E0239D
:103610005A6100229A611A46126942F001021A6147
:1036200000BF4FF0E022106900F001021AB100F46F
:103630008032002AF5D04FF0E022126922F0010218
:103640004FF0E0231A6100229A61704700000020C9
:1036500070B504460D46E1B20548FFF716FB00BF02
:1036600080210348FFF743FA0028F9D0204670BDB7
:1036700000380140A8B04820FEF7DAFD4FF4A06002
:10368000FEF704FCFEF77CFBFDF7A2FAFEF7AEF9AD
:10369000FEF740F940F2671140F2E730FEF7FAFF1B
:1036A00040F2CF2140F2E730FFF744F84FF4FA71CF
:1036B000FB48FFF73AF94FF4FA71FA48FFF735F98A
:1036C000FEF778FB4FF41650FFF7A4F9FDF7C8FF9B
:1036D000FDF7C0FAFEF770FEFEF7AAFCFA20FFF72E
:1036E00091FFFEF708FDFEF7F1FC9620FFF78AFF39
:1036F000FDF724FA0020FFF76BF84FF6FF70EA4958
:1037000008800020E9490880E9490870E949087003
:1037100026902590142024900020FEF78BF900BFFE
:1037200000BF00201E901F9000BF1B901A901990A0
:103730006DE3DF4801782698814205D0DC480078A7
:1037400026900020FEF776F9D9480078062859D24D
:10375000DFE800F0035958FEFDFCD7A01821CDE9A1
:103760000010D94840880790D74800880690024644
:1037700064210A20079BFEF7BDFAD4A11020CDE9F1
:103780000001D14840880790CF4800880690024643
:103790008C210A20079BFEF7ADFAD3A01021CDE9BA
:1037A0000010C94840880790C74800880690024624
:1037B000AA210A20079BFEF79DFAD1A01021CDE98E
:1037C0000010C14840880790BF4800880690024614
:1037D000C8210A20079BFEF78DFAD0A11020CDE961
:1037E0000001B94840880790B74800880690024613
:1037F000E6210A20079BFEF77DFA0020FEF7E8FF8E
:1038000000202590D6E2CBA01821CDE90010AE48CB
:1038100040880790AC480088069002460A21084676
:10382000079BFEF767FAC6A01021CDE90010A64855
:1038300040880790A44800880690024632210A205A
:10384000079BFEF757FAC1A01021CDE900109E4852
:10385000408807909C48008806900246DC210A2098
:10386000079BFEF747FA2498401CC0B22490249886
:103870000A286EDD0020249017A8FDF7B5FA01286C
:1038800061D1002024909DF85D000190FCF7CAFEF4
:103890000022B14BCDE90201FCF747FECDE906015C
:1038A0009DF85C000390FCF7BDFECDE90401DDE965
:1038B0000623FCF721FDCDE922019DF85F00019070
:1038C000FCF7B0FE0022A44BCDE90201FCF72DFE6F
:1038D000CDE906019DF85E000390FCF7A3FECDE95B
:1038E0000401DDE90623FCF707FDCDE920019BA1DA
:1038F00014A8DDE92223FFF7DDF914A81021CDE992
:1039000000107148408807906F4800880690024672
:1039100050211420079BFEF7EDF993A111A8DDE9D2
:103920002023FFF7C7F911A81021CDE90010664840
:103930004088079064480088069002466E21142053
:10394000079BFEF7D7F9FEF777FB03E022E295E14C
:1039500052E160E0874800798649C97840EA012051
:103960000490FCF751FE0590FCF782FE824A834BDF
:10397000CDE90601FCF7D9FDCDE91E017D4840786F
:103980007C49097840EA01200390FCF73DFE7C4920
:103990000490FCF741FC7B490590FCF76FFC7A49E9
:1039A0000690FCF733FC0790FCF762FECDE91C01A2
:1039B00076A10EA8DDE91E23FFF77CF90EA8FFF71C
:1039C00069F90EA91020CDE900013F484088079011
:1039D0003D48008806900246FA211420079BFEF716
:1039E00089F96DA10EA8DDE91C23FFF763F90EA884
:1039F000FFF750F90EA91020CDE9000132484088A8
:103A0000079031480088069002464FF48C711420CC
:103A1000079BFEF76FF90022624BDDE91E01FCF700
:103A200053FE07D2259828B90120FEF7D1FE0120C8
:103A300025900EE000225C4BDDE91E01FCF72CFE18
:103A400007D22598012804D10020FEF7C1FE0020EE
:103A500025902598012811D154A01021CDE90010FE
:103A600019484088079018480088069002464FF48D
:103A7000A0710A20079BFEF73DF910E050A010212D
:103A8000CDE900101048408807900F480088069044
:103A900002464FF4A0710A20079BFEF72BF999E02C
:103AA0000004004000080040040000200600002040
:103AB000180000201900002057656C636F6D6520A9
:103AC000746F20515443000008000020312E205410
:103AD000656D706572617475726520262048756D1C
:103AE0006964697479000000322E20546170657237
:103AF0006564204669626572204C6F636B0000004C
:103B0000332E205461706572656420466962657267
:103B100020436F6E74726F6C00000000342E2043DF
:103B20006F75706C696E672041646A7573746D653A
:103B30006E74000054656D7020262048756D690014
:103B400053656E736F7220313A00000053656E73D7
:103B50006F7220323A0000000000244048756D6901
:103B60003D25322E326C660054656D703D25322E37
:103B7000326C66001B000020CDCCCCCCCC7A8440CB
:103B800000002F4300FF7F47000034425348544851
:103B90003D25322E326C6600534854543D25322E5A
:103BA000326C6600000039400000364046616E20ED
:103BB00069732072756E6E696E672E2E2E0000007E
:103BC00046616E2069732073746F707065642E2E69
:103BD0002E0000008EA01021CDE9001092484088F0
:103BE000079091480088069002464FF4AF710A2072
:103BF000079BFEF77FF8DDE08CA01821CDE90010CF
:103C000089484088079088480088069002460A2123
:103C10000846079BFEF76EF888A00C21CDE900103E
:103C200081484088079080480088069002465021CD
:103C30001420079BFEF75EF888A00C21CDE9001048
:103C400079484088079078480088069002466E219F
:103C50001420079BFEF74EF86DA01021CDE900104F
:103C600071484088079070480088069002464FF4DB
:103C7000AF710A20079BFEF73DF89BE07FA018215B
:103C8000CDE9001068484088079067480088069092
:103C900002460A210846079BFEF72CF83221032032
:103CA000FDF79CFC1B901B98FCF7B7FC0390FCF7FE
:103CB000DFFC4FF06632764BCDE90401FCF7C3FB25
:103CC000CDE90601FCF718FD1A901A98FCF7D0FC14
:103CD00002460B46CDE906016EA108A8FEF7EAFFF1
:103CE00008A81021CDE900104F48408807904E48A1
:103CF00000880690024628210A20079BFDF7FAFF5C
:103D000008A8FEF7C7FF66480078012826D10021E1
:103D10001998FCF70DFD01D11A981990614919986D
:103D2000FCF77AFA5F4906901A98FCF775FA049046
:103D30005D480088FCF771FC03900499FCF714FAC5
:103D400005900699FCF762FA0790FCF778FC564953
:103D5000088008460088FCF7ABFF01E000201990BE
:103D60005148028851A108A8FEF7A4FF08A8102115
:103D7000CDE900102C48408807902B480088069019
:103D8000024646210A20079BFDF7B4FF08A8FEF76C
:103D900081FF0FE047A01821CDE90010224840889C
:103DA000079021480088069002460A210846079B92
:103DB000FDF7A0FF00BF4348007801281BD1002079
:103DC00040490870404841A102680BA8FEF772FF05
:103DD0000BA81021CDE90010134840880790124825
:103DE00000880690024632210A20079BFDF782FFD9
:103DF0000020354908603948006808B9012000E012
:103E00000020364908606420FFF7D6FB00BF90E42D
:103E10005052455353203020746F204D41494E205D
:103E200073637265656E0000080000204669626574
:103E30007220436F6E74726F6C0000005072657375
:103E400073207C3C3C20746F206C6F6F73656E2018
:103E5000746865206669626572000000507265735F
:103E600073203E3E7C20746F207469676874656EB1
:103E7000207468652066696265720000436F757022
:103E80006C652041646A7573746D656E7400000022
:103E900066664A3F4176616C3D252E336600000020
:103EA0001900002000001643160000204476616CC3
:103EB0003D2564004C6173657220436F6E74726FB0
:103EC0006C00000014000020100000204952206304
:103ED0006F64653A2025302E385800008001224258
:103EE00000000000000000000000000000000000D2
:103EF0003F400000000000000000300040003000A3
:103F00004000000009000BC03D000BC03D0009004F
:103F100018C024407FE0224031800000180024C0F7
:103F20001B000D803240018003801C4027401C8014
:103F3000074000401000600000000000000000008A
:103F40000000000000001F802040402000004020B2
:103F500020401F8000000000090006001F800600AE
:103F600009000000040004003F8004000400000079
:103F700000100060000000000000000004000400C9
:103F800004000400040000000000004000000000E5
:103F900000000000002001C00600380040000000C2
:103FA0001F802040204020401F8000000000104063
:103FB0003FC000400000000018C0214022402440C3
:103FC0001840000010802040244024401B80000046
:103FD00002000D0011003FC0014000003C80244061
:103FE00024402440238000001F802440244034408B
:103FF000038000003000200027C0380020000000AF
:104000001B802440244024401B8000001C0022C050
:10401000224022401F8000000000000008400000F5
:10402000000000000000000004600000000000002C
:10403000000004000A00110020804040090009002F
:104040000900090009000000000040402080110024
:104050000A0004001800200023402400180000007B
:104060001F802040274029401F400000004007C01B
:1040700039000F0001C0004020403FC024402440D0
:104080001B8000001F802040204020403080000026
:1040900020403FC0204020401F80000020403FC003
:1040A00024402E4030C0000020403FC024402E005D
:1040B000300000000F0010802040224033800200BA
:1040C00020403FC0040004003FC02040204020406A
:1040D0003FC02040204000000060202020203FC042
:1040E0002000200020403FC024400B0030C0204072
:1040F00020403FC020400040004000C03FC03C0086
:1041000003C03C003FC0000020403FC00C402300E3
:104110003FC020001F802040204020401F80000022
:1041200020403FC024402400180000001F80214090
:10413000214020E01FA0000020403FC02440260076
:1041400019C0004018C024402440224031800000A3
:10415000300020403FC020403000000020003F8061
:10416000004000403F80200020003E0001C00700CA
:1041700038002000380007C03C0007C038000000AD
:10418000204039C0060039C02040000020003840DF
:1041900007C0384020000000304021C02640384091
:1041A00020C00000000000007FE040204020000010
:1041B000000070000C000380004000000000402060
:1041C00040207FE0000000000000200040002000B0
:1041D000000000000010001000100010001000107F
:1041E000000000004000000000000000000002800D
:1041F0000540054003C0004020003FC0044004408B
:1042000003800000000003800440044006400000DA
:1042100000000380044024403FC0004000000380B1
:104220000540054003400000000004401FC024403A
:1042300024402000000002E00550055006500420F4
:1042400020403FC00440040003C000400000044080
:1042500027C000400000000000100010041027E0FC
:104260000000000020403FC00140070004C004409F
:10427000204020403FC000400040000007C0040034
:1042800007C0040003C00000044007C0044004004D
:1042900003C000400000038004400440038000008D
:1042A000041007F004500440038000000000038065
:1042B0000440045007F00010044007C0024004000E
:1042C00004000000000006400540054004C0000056
:1042D000000004001F80044000400000040007802C
:1042E0000040044007C000400400070004C00180F3
:1042F00006000400060001C0070001C0060000001F
:10430000044006C0010006C004400000041007106D
:1043100004E00180060004000000044005C00640DF
:10432000044000000000000004007BE0402000008A
:10433000000000000000FFF000000000000040202E
:104340007BE00400000000004000800040002000EE
:1043500020004000000000000000000000000000FD
:10436000000000000000000000001FCC000C000056
:10437000000000000000080030006000080030006D
:1043800060000000022003FC1E20022003FC1E200F
:104390000220000000000E1811043FFF10840C786A
:1043A000000000000F0010840F3800C00778188448
:1043B0000078000000780F8410C411240E9800E4E7
:1043C0000084000808006800700000000000000081
:1043D0000000000000000000000007E018182004A2
:1043E00040020000000040022004181807E000000E
:1043F000000000000240024001800FF001800240F6
:10440000024000000080008000800FF800800080E3
:10441000008000000001000D000E00000000000000
:10442000000000000000008000800080008000800C
:10443000008000800000000C000C00000000000064
:104440000000000000000006001800600180060067
:1044500018002000000007F00808100410040808E5
:1044600007F000000000080408041FFC000400041A
:104470000000000000000E0C1014102410441184E1
:104480000E0C000000000C18100411041104128816
:104490000C700000000000E00320042408241FFC2E
:1044A0000024000000001F981084110411041088DB
:1044B00010700000000007F008881104110418882B
:1044C0000070000000001C00100010FC13001C0015
:1044D0001000000000000E381144108410841144B4
:1044E0000E38000000000700088C104410440888B3
:1044F00007F00000000000000000030C030C0000A7
:1045000000000000000000000001010600000000A3
:104510000000000000000080014002200410080894
:1045200010040000022002200220022002200220AB
:1045300002200000000010040808041002200140BE
:104540000080000000000E001200100C106C1080A3
:104550000F00000003E00C1813E4142417C408280B
:1045600007D000000004003C03C41C40074000E4E6
:10457000001C000410041FFC1104110411040E8817
:104580000070000003E00C18100410041004100860
:104590001C10000010041FFC100410041004080874
:1045A00007F0000010041FFC1104110417C41004CC
:1045B0000818000010041FFC1104110017C010009F
:1045C0000800000003E00C181004100410441C78CC
:1045D0000040000010041FFC108400800080108444
:1045E0001FFC10040000100410041FFC1004100431
:1045F0000000000000030001100110011FFE100068
:104600001000000010041FFC110403801464181C27
:104610001004000010041FFC100400040004000437
:10462000000C000010041FFC1F0000FC1F001FFCFA
:104630001004000010041FFC0C04030000E010181C
:104640001FFC100007F008081004100410040808EC
:1046500007F0000010041FFC1084108010801080F0
:104660000F00000007F0081810241024101C080A7E
:1046700007F2000010041FFC1104110011C01130DA
:104680000E0C000400000E1C110410841084104451
:104690001C3800001800100010041FFC100410004B
:1046A0001800000010001FF810040004000410049B
:1046B0001FF8100010001E0011E0001C0070138095
:1046C0001C0010001FC0103C00E01F0000E0103C68
:1046D0001FC000001004180C163401C001C01634AD
:1046E000180C100410001C00130400FC13041C0020
:1046F000100000000804101C1064108413041C0433
:10470000101800000000000000007FFE4002400280
:1047100040020000000030000C0003800060001C1C
:104720000003000000004002400240027FFE000043
:104730000000000000000000200040004000400099
:104740002000000000010001000100010001000143
:1047500000010001000040004000200000000000B7
:1047600000000000000000980124014401440144BD
:1047700000FC000410001FFC0088010401040088F4
:1047800000700000000000700088010401040104B2
:104790000088000000000070008801040104110876
:1047A0001FFC0004000000F80144014401440144DE
:1047B00000C800000000010401040FFC11041104F2
:1047C00011001800000000D601290129012901C9A2
:1047D0000106000010041FFC008401000100010418
:1047E00000FC000400000104190419FC000400048A
:1047F000000000000000000300010101190119FE82
:104800000000000010041FFC0024004001B4010C53
:10481000010400000000100410041FFC0004000448
:1048200000000000010401FC0104010001FC01047E
:10483000010000FC010401FC0084010001000104EE
:1048400000FC0004000000F801040104010401045C
:1048500000F80000010101FF008501040104008847
:1048600000700000000000700088010401040105D0
:1048700001FF00010104010401FC008401040100A6
:1048800001800000000000CC012401240124012447
:104890000198000000000100010007F80104010474
:1048A00000000000010001F80004000400040108F9
:1048B00001FC0004010001800170000C0010016087
:1048C0000180010001F0010C003001C00030010C3A
:1048D00001F0010000000104018C00740170018CE2
:1048E00001040000010101810171000E0018016046
:1048F0000180010000000184010C013401440184A5
:10490000010C0000000000000000000001003EFC5F
:10491000400240020000000000000000FFFF000015
:10492000000000000000400240023EFC01000000C8
:104930000000000000006000800080004000400097
:104940002000200000000000000000000000000027
:104950000000000000000000000000000000000057
:104960000000000000000000000000000000000047
:10497000000000000000000F80380FFE380F803864
:104980000000000000000000000000000000000027
:1049900000000100000600000C000038000031009B
:1049A000000600000C00003800003000000000008D
:1049B0000000000061800067F807F9800061800056
:1049C00061800061800061800067F807F980006104
:1049D0008000000000000000000001C0E003E0F0E3
:1049E0000630080418081FFFFE040E080787F003AE
:1049F00081E000000000000001F000060C0004044B
:104A000008060C7001F9C0000E00003BE000EC1835
:104A1000070808040C180003E00000000001E00093
:104A200007F003F818041C0804170807E1D003C0B6
:104A3000E00023B0003C0800200800001000000047
:104A40000000000100003100003200001C000000E6
:104A50000000000000000000000000000000000056
:104A60000000000000000000000000000000000046
:104A7000000000007F0001FFC00780F00C0018104C
:104A800000042000020000000000002000021000CE
:104A9000040C00180780F001FFC0007F0000000038
:104AA0000000000000000000000000000000000006
:104AB0004200006600006600003C0000180003FF92
:104AC000C0001800003C00006600006600004200C4
:104AD00000000000080000080000080000080000B6
:104AE000080001FFC00008000008000008000008DE
:104AF000000008000000000000010000310000324A
:104B000000001C0000000000000000000000000089
:104B10000000000000000000000000000800000885
:104B2000000008000008000008000008000008005D
:104B3000000800000800000800000000000000005D
:104B400000000000380000380000380000000000BD
:104B50000000000000000000000000000000000055
:104B600000000000000600001C0000700001800032
:104B70000E0000380000C0000700001C00003000DC
:104B800000000000000000007F8001FFE003807053
:104B900006001804000804000806001803807001CD
:104BA000FFE0007F80000000000000000000010026
:104BB0000801000801000803FFF807FFF8000008DB
:104BC00000000800000800000000000000000001D4
:104BD000C03802C0580400980401180402180404E4
:104BE00018061C1803F81801E0F800000000000087
:104BF00000000001C0E003C0F0040008040808043D
:104C0000080806180803F41801E7F00001E00000A6
:104C100000000000000000000300000D0000110073
:104C200000610000810803010807FFF80FFFF8008A
:104C300001080001080000000000000000E007FC7F
:104C4000D0060808061008061008061008061838CE
:104C5000060FF00607C00000000000000000000082
:104C60003F8001FFE003843002081804100804109C
:104C700008041008071810030FF00007C000000018
:104C800000000000000003C000070000060000064E
:104C900000F80607F806180006E000070000060006
:104CA0000000000000000001E1E003F7F00634100E
:104CB000041808041808040C08040C080616180345
:104CC000F3F001C1E000000000000000F80003FC68
:104CD0003003063804020804020804020804041021
:104CE0000308F001FFC0007F00000000000000008A
:104CF000000000000000000000000000703800709C
:104D000038007038000000000000000000000000C3
:104D10000000000000000000000000000000000093
:104D2000301A00301C0000000000000000000000ED
:104D30000000000000000000000000080000140057
:104D40000022000041000080800100400200200499
:104D500000100800080000000000000021000021F1
:104D6000000021000021000021000021000021009E
:104D700000210000210000210000000000000000D0
:104D8000000008000804001002002001004000801C
:104D90008000410000220000140000080000000014
:104DA00000000003C00004C0000400000800380830
:104DB0000F380808380810000C300007E00003C066
:104DC00000000000000000003F8000FFE003807052
:104DD000020F1006708804C088048308047F8802CC
:104DE000C09003012000FE400000080000180001F0
:104DF000F8003E0801C20007020007E20000FE00C2
:104E0000001FC80001F8000038000008040008076F
:104E1000FFF807FFF8040808040808040808040855
:104E20000806180803F41801E7F00001E00000008C
:104E3000000000003F8001FFE003807002001804C2
:104E40000008040008040008040010060020078081
:104E5000C000000004000807FFF807FFF80400087E
:104E60000400080400080400180200100380700108
:104E7000FFE0007F8000000004000807FFF807FF44
:104E8000F8040808040808040808040808043E0890
:104E90000400080600180100600000000400080774
:104EA000FFF807FFF80408080408000408000408D5
:104EB00000043E0006000006000001800000000023
:104EC000000000003F8001FFE0038070060018042E
:104ED00000080402080402080203F00783F000023D
:104EE0000000020004000807FFF807FFF8040808A4
:104EF0000008000008000008000008000408080777
:104F0000FFF807FFF804000800000000000004009C
:104F10000804000804000807FFF807FFF804000869
:104F20000400080400080000000000000000000069
:104F30000006000007000001040001040001040055
:104F40000307FFFE07FFFC0400000400000400004C
:104F500004000807FFF807FFF8040C080018000019
:104F60003E0004C7800503C80600F80400380400AA
:104F70001800000804000807FFF807FFF8040008FD
:104F800000000800000800000800000800000800F9
:104F9000001800006000000004000807FFF8078008
:104FA0000807FC00007FC00003F80007C00078007D
:104FB00007800807FFF807FFF80400080400080747
:104FC000FFF807000803C00000E000003800001EE2
:104FD000000007000001C00400F007FFF804000013
:104FE000000000007F8001FFE003807006001804CD
:104FF000000804000806001803003001FFE0007FED
:105000008000000004000807FFF807FFF804040808
:10501000040400040400040400040400060C00035B
:10502000F80001F000000000000000007F8001FF98
:10503000E00380700600880400880400C806003C75
:1050400003003E01FFE6007F840000000400080723
:10505000FFF807FFF8040808040800040C00040F18
:1050600000040BC00610F003F03801E0080000084F
:1050700000000001E0F803F03006301004180804C6
:105080001808040C08040C080206180207F007812F
:10509000E0000000018000060000040000040000A1
:1050A00004000807FFF807FFF804000804000004E4
:1050B000000006000001800004000007FFE007FF79
:1050C000F0040018000008000008000008000008B4
:1050D00000000804001007FFE004000004000006C0
:1050E000000007E00007FE00041FE00001F80000D8
:1050F000380001E0043E0007C00006000004000084
:1051000004000007E00007FFC0041FF80007C00705
:10511000F80007FF80043FF80007C004F80007000C
:105120000004000000000004000806001807C07812
:1051300005F1C8003E00001F800463E80780F80600
:1051400000180400080000000400000600000780AA
:105150000007E008047C08001FF80007F8001808A2
:1051600004E0080700000600000400000000000141
:1051700000080600380400F80403E8040F08047C63
:105180000805F00807C008070018040060000000C8
:105190000000000000000000000000000000003FD0
:1051A000FFFE20000220000220000220000220005A
:1051B00002000000000000000000080000070000DE
:1051C00000C0000038000006000001C000003000F0
:1051D000000E0000010000000000000000002000A0
:1051E000022000022000022000022000023FFFFEF9
:1051F00000000000000000000000000000000000AF
:105200000000000000080000100000300000200036
:105210000030000010000008000000000000000046
:105220000000010000010000010000010000010079
:105230000001000001000001000001000001000069
:10524000010000010000000000000000002000003C
:10525000200000100000100000000000000000000E
:1052600000000000000000000000000000F0001935
:10527000F8001B180022080026080024080024104B
:10528000003FF8001FF800000800001800000004AC
:10529000000007FFF80FFFF00018180010080020AA
:1052A00008002008003018001FF0000FC0000000A8
:1052B0000000000007C0001FF000183000200800A8
:1052C0002008002008003C08001C100000600000BE
:1052D000000000000000000007C0001FF0003818A8
:1052E00000200800200800200804101007FFF80F15
:1052F000FFF00000100000000000000000000007A8
:10530000C0001FF0001230002218002208002208FE
:10531000003208001E10000E2000000000000000F7
:10532000200000200800200801FFF803FFF80620F5
:1053300008042008042008072000030000000000E3
:1053400000000000000E000E6E001FF30031B100DF
:1053500020B10020B1003191001F13002E1E00204B
:105360000E00300000000004000807FFF80FFFF8EF
:10537000001008002000002000002008003FF80076
:105380001FF80000080000000000000000000020DE
:1053900008002008002008063FF8063FF800000833
:1053A00000000800000800000000000000000000ED
:1053B0000000000003000003002001002001002085
:1053C00003063FFE063FFC00000000000000000056
:1053D00000000004000807FFF80FFFF80001880034
:1053E0000300002FC00038F800203800200800001B
:1053F000080000000000000000000400080400088D
:1054000004000807FFF80FFFF8000008000008007C
:105410000008000000000000002008003FF8003FE6
:10542000F8001008002000003FF8003FF8001008C6
:10543000002000003FF8003FF800000800000000D6
:105440002008003FF8003FF800100800100000207E
:1054500000002008003FF8001FF8000008000000CE
:105460000000000007C0000FF000183000300800F6
:105470002008002008003008001830000FF0000756
:10548000C0000000000000002001003FFF003FFFBF
:10549000001011002009002008002008003038000A
:1054A0001FF0000FC00000000000000007C0001F38
:1054B000F000381800200800200800200900101112
:1054C000001FFF003FFF0000010000000020080057
:1054D0002008002008003FF8003FF80008080010EE
:1054E000080020080020000030000030000000000C
:1054F000000000000000000C78001E1800330800B7
:1055000023080021080021880021980030F000388D
:1055100060000000000000002000002000002000CB
:1055200000FFF003FFF8002008002008002008001A
:105530000030000000000000000000002000003FDC
:10554000F0007FF80000180000080000080020109C
:10555000003FF8007FF00000100000000000000095
:105560002000003000003C00003F800023F00000DD
:1055700078000070002380003C0000300000200014
:10558000002000003C00003FE00023F80000E000A5
:105590002700003E00003FE00021F80001E0003E4F
:1055A000000020000000000020080020080038381B
:1055B000003E680027800003C8002CF8003838003F
:1055C000201800200800000000000000200000302B
:1055D00003003C01003F830023EC000070002380A7
:1055E000003C00002000002000000000000000003F
:1055F00000000038080020380020F80023E8002FC1
:1056000088003E08003808002018000070000000E4
:10561000000000000000000000000000000000008A
:1056200008000014001FF7FC3000062000020000F4
:10563000000000000000000000000000000000006A
:10564000000000000000FFFFFF000000000000005D
:10565000000000000000000000000000000020002A
:10566000023000061FF7FC001400000800000000D4
:105670000000000000000000000000000000001812
:10568000000060000040000040000020000010000A
:10569000000800000400000400000C0000100000DE
:1056A000C6D50000000000E0380000783C00003C57
:1056B0007800003C70C0001CE1E01FFFFFF0001C00
:1056C000E3000E1CE7C0079CE78003DCEF0003DC6F
:1056D000EE0001DCFC60009CF9F07FFFFFF80000A9
:1056E000000001C00E0001FFFF0001C00E0001C05C
:1056F0000E0001C00E0001FFFE0001C00E0001C03F
:105700000E0001C00E0001FFFE0001C00E0001C02E
:105710000E0000000000D6D00000000000070000CE
:1057200000078000000700000007000000070000DD
:10573000000701801FFFFFE01FFFFFE01E0701C001
:105740001E0701C01E0701C01E0701C01E0701C0C1
:105750001E0701C01FFFFFC01FFFFFC01E0701C0C3
:105760001C07018000070000000700000007000080
:10577000000700000007000000070000000700000D
:10578000000700000007000000000000BFC6000086
:10579000000000000780003C07C001FC07803FE0DC
:1057A000078039C1C78001C0E78001C0F78001C010
:1057B000778001DE77807FFE078001C0078003C30A
:1057C000C78003E1E78003F8F78007FCE7F00FDE0E
:1057D00067F80FDC07F81FC0FF801DDFE78039CCBA
:1057E000078071C0078061C0078001C0078001C0C9
:1057F000078001E0078001E0078001C0070000008A
:105800000000BCBC000000000380300003C03C006E
:1058100003C03C0003C0380003C0380003C0386038
:1058200003F838F07FFFFFF003C0380003C03800F2
:1058300003C0380003DC39C003FFFFE007E383C087
:105840003FC183C07FC1C3803BC1C78003C0EF009D
:1058500003C0EF0003C07E0003C07C0003C07C00D7
:1058600003C0FE003BC3EF803F8787F80FBF03F8FC
:10587000077800E000000000C4EA0000000000C05B
:10588000000001F0000001E0000003C000C003C000
:1058900001E007FFFFF00703C0000E03C0001E0376
:1058A000C0003C03C3007303C78063FFFFC00383D2
:1058B000C0000383C0000383C0000383C0000383D0
:1058C000C0600383C0F07FFFFFF80003C000000347
:1058D000C0000003C0000003C0000003C0000003BC
:1058E000C0000003C0000003C00000000000D4C2DC
:1058F000000000000000000000E0070000FFFF8043
:1059000000F0078000F0070000F0070000F007003B
:1059100000F0070000FFFF0000FFFF0000F007009D
:1059200000F0070000F0070000F0070000E00700AB
:1059300000FFFF0000E0070000E0070000E00700B4
:1059400001E0070001C0070001C007000380070055
:105950000780F7000F007F001E001F0038001C00AA
:1059600000000000C8D50000000000000000030097
:10597000030003FFFF8003FFFF8003800700038015
:1059800007000380070003800700038007000380EF
:105990000700038007000380070003FFFF00038068
:1059A00007000380070003800700038007000380CF
:1059B00007000380070003800700038007000380BF
:1059C000070003FFFF000380070003800700038038
:1059D00007000300000000000000D0C70000000026
:1059E000000000000380070003FFFF800380070022
:1059F000038007000380070003FFFF000380070008
:105A00000380070003FFFF0003FFFF000387070079
:105A10000387C00003C7810003C7838007FFFFC05F
:105A2000070780000F0780001E0786001C078F00F5
:105A30003BFFFF807007800000078000000780E0C8
:105A4000000781F07FFFFFF8000000000000000069
:105A5000C6DA0000000006000000079E0000079E56
:105A60007FF0079E7FF0079FF8F03FFFF8F01F9E42
:105A700078F0079E78F0079E78F007FE7FF0079E8B
:105A800078F0079E78F0079E70F007FE70F0079E92
:105A900070F0079E7FF0079FFFF03FFFF0F011903E
:105AA00070F003DCF0F003DEE0F0078FE0F00F0FA2
:105AB000E0F00E07C0F01C038FF0380F03E0201C4D
:105AC00001C0000000000000E85A000800000020AB
:105AD0003C000000DC2C0008245B00083C00002097
